:020000040800F2
:100000004808002005010008FB290008FF2100081E
:10001000F9290008390B0008B92D0008000000007C
:10002000000000000000000000000000E52A0008B9
:10003000B9100008000000002F2A00088D2B0008CE
:100040001F0100081F0100081F0100081F01000810
:100050001F0100081F0100081F0100081F01000800
:100060001F0100081F0100081F010008611000089F
:100070001F0100081F0100081F0100081F010008E0
:100080001F0100081F0100081F0100081F010008D0
:100090001F0100081F0100081F010008BD10000813
:1000A0001F0100081F0100081F0100081F010008B0
:1000B0003D2C0008492C0008792C00081F0100087D
:1000C0001F0100081F0100081F0100081F01000890
:1000D0001F010008792D00081F0100081F010008FA
:1000E0001F0100081F0100081F010008DFF810D0E1
:1000F00000F0D6FB00480047C1400008AFF3008085
:10010000480800200648804706480047FEE7FEE70B
:10011000FEE7FEE7FEE7FEE7FEE7FEE7FEE7FEE7B7
:10012000392C0008ED000008202A04DB203A21FACF
:1001300002F00021704721FA02F3D040C2F1200200
:100140009140084319467047D2B201E000F8012BF4
:10015000491EFBD270470022F6E710B513460A4647
:1001600004461946FFF7F0FF204610BD30B505469E
:100170002A460B4612F8010B13F8014B08B1A042B6
:10018000F8D01CB1002802D06D1CF1E7284630BD24
:1001900080EA010210B502F00043400022D04A007C
:1001A0001FD0010E01EB1261C0F35600C2F35602DC
:1001B00040F4000042F40002A0FB022000047F395A
:1001C000140400D0401C50EA124001D44000491EE3
:1001D000C2B20C0604EBD010401C4008802A02D0AA
:1001E00003E0002010BD20F00100002900DA00200B
:1001F000184310BD2DE9FE4F804681EA0300C00F71
:100200000C46009021F0004123F00045B8EB0200BD
:10021000A94105D24046214690461C460B4602465F
:1002200023F00040104347D0270DC7F30A00C3F363
:100230000A510290401A019040286BDAC3F3130070
:1002400040F4801B0098924620B10023D2EB030AB1
:1002500063EB0B0B01985946C0F14002504600F089
:100260003AFA06460D4650465946019A00F042FABF
:1002700010EB08006141002487EA115284EAE77319
:100280001A4340D0009A62B3019A012A4FEA0752FA
:1002900015DC001B61EB02014FF0004202EA07523D
:1002A000CDE90042001C41F5801132462B4600F09A
:1002B00079FA03B0BDE8F08F40462146F9E7001B0C
:1002C00061EB0201001C41F5801300185B4120180E
:1002D000A2F5001747EB030140EAD570B6196D414E
:1002E00011E06D084FEA360645EAC0754FEA07523D
:1002F000001B61EB0201001C41F5801149084FEA27
:1003000030000019514132462B4603B0BDE8F04F92
:1003100000F039BA0098012240000023D0EB02021D
:1003200063EBE073009821464FEAE074B8EB0000FD
:1003300061EB0401E9E783F000435BE781F00041F2
:1003400058E72DE9FE4F81EA030404F0004421F050
:10035000004100944FF0000B23F0004350EA0104E9
:100360005ED052EA03045BD0C3F30A54C1F30A55CA
:100370002C44A4F2F3340194A0FB0254C1F3130102
:1003800041F48011C3F3130343F4801301FB0244CF
:1003900000FB034E840A970A44EA815447EA8357D4
:1003A000A4FB076802958D0A05FB07854FEA932C8D
:1003B00004FB0C542705029D4FEA065847EA1637FE
:1003C000B5EB08056EEB070C870E920E47EA811716
:1003D00042EA8312A7FB0201B6EB0B0164EB0004B7
:1003E0002B0D43EA0C335E1844EB1C50DA465146A1
:1003F000E7FB0201C5F313044FEA0B3343EA14533E
:100400004FEA0432019C43EA0603A4F10C0402946F
:10041000009CCDE900B400F0C5F903B0BDE8F08F51
:1004200000200146F9E72DE9F04D81EA030404F0CC
:10043000004B21F0004514464FF0000A23F0004124
:1004400050EA050220D054EA01021DD0C5F30A5734
:100450000246C5F31303C1F31300C1F30A5640F477
:10046000801543F48013A7EB0608101BD64608F24C
:10047000FD3873EB050002D308F1010801E0921882
:100480005B41B8F1000F03DA00200146BDE8F08DB2
:1004900000204FF48011064684460EE0171B73EBD4
:1004A000050705D3121B63EB050306434CEA010C59
:1004B00049084FEA300092185B4150EA0107EDD13C
:1004C00052EA030012D082EA040083EA05010843DD
:1004D00005D0101BAB4106D20122002306E000220A
:1004E0004FF0004302E06FF0010253101AEB0600D8
:1004F0004CEB085110EB0A0041EB0B01BDE8F04D4D
:1005000000F041B970B521F0004303430CD0C1F3B2
:100510000A550024D5EB040564EB0403D617AD1A85
:10052000B34102DB0020014670BD201841EB0251AF
:1005300070BDC10F80EAE0700844CA07962300210D
:1005400000F0F3B80EB5C10F80EAE0700844CA07A6
:10055000002140F233438DE80E000A460B4600F0BE
:1005600021F903B000BD0EB540F2334102910021E4
:10057000CDE900110A460B4600F014F903B000BDA6
:1005800000F0004220F00040C10DC0F3160040F41E
:1005900000007F2901DA00207047962903DCC1F1B1
:1005A0009601C84001E096398840002AF4D04042C4
:1005B000704770B5C1F30A5201F000450024C1F341
:1005C000130140F2FF3341F480119A4201DA002016
:1005D00070BD40F233439A42A2F2334203DC5242EE
:1005E000FFF7A2FD00E090402C43F1D0404270BDE7
:1005F000C1F30A5210B5C1F3130140F2FF3341F4C5
:1006000080119A4201DA002010BD40F233439A4231
:10061000A2F2334203DC5242FFF786FD10BD904048
:1006200010BD00F0004230F000400AD0C10D01F5CD
:100630006071C0F3160042EA0151C208400711433D
:10064000704700200146704730B50B460146002038
:100650002022012409E021FA02F59D4205D303FA84
:1006600002F5491B04FA02F52844151EA2F1010205
:10067000F1DC30BD2DE9F05F0546002092469B4637
:1006800088460646814640241BE0284641464746A8
:100690002246FFF749FD53465A46C01A914110D3EE
:1006A00011461846224600F016F82D1A67EB01088D
:1006B0004F4622460120002100F00DF817EB0009FB
:1006C0004E41201EA4F10104DFDC484631462A4693
:1006D0004346BDE8F09F202A04DB203A00FA02F1ED
:1006E000002070479140C2F1200320FA03F3194320
:1006F00090407047202A06DBCB17203A41FA02F0DF
:1007000043EAE07306E041FA02F3D040C2F120026E
:1007100091400843194670470029A8BF7047401C04
:10072000490008BF20F00100704710B4B0FA80FC07
:1007300000FA0CF050EA010404BF10BC704749B144
:10074000CCF1200421FA04F411FA0CF118BF0121B4
:1007500021430843A3EB0C01CB1D4FEA00614FEA94
:10076000102042BF002010BC704700EBC350104463
:100770000029A4BF10BC7047401C490008BF20F0EE
:10078000010010BC704710B5141E73F1000408DAA4
:10079000401C41F1000192185B411A4301D120F045
:1007A000010010BD2DE9F04D92469B4611B1B1FA02
:1007B00081F202E0B0FA80F220329046FFF78BFF20
:1007C00004460F4640EA0A0041EA0B0153465A46E6
:1007D000084313D0114653EA010019D0C8F1400272
:1007E0005046FFF7A1FC05460E4650465946424684
:1007F000FFF771FF084305D0012004E02046394689
:10080000BDE8F08D0020054346EAE0762C433743EF
:100810000A986305E40AA0EB08000022FD0A44EAF6
:1008200047540A3002D500200146E9E701051019B6
:100830006941DDE9084500196941BDE8F04DA2E7CD
:10084000C1F30A52C1F3130140F2FF3341F48011A6
:100850009A4202DA00200146704740F233439A423E
:10086000A2F2334202DC5242FFF75EBCFFF733BF15
:1008700030B5041E71F1000404DB4FF00044404227
:1008800064EB0101141E73F1000405DB1C464FF0FC
:100890000043524263EB0403994208BF904230BDCB
:1008A000064C074D06E0E06840F0010394E80700BD
:1008B00098471034AC42F6D3FFF71CFCF44500080F
:1008C0001446000870B58C1810F8015B15F007038A
:1008D00001D110F8013B2A1106D110F8012B03E0D9
:1008E00010F8016B01F8016B5B1EF9D12B0705D4E1
:1008F0000023521E0DD401F8013BFAE710F8013B2A
:10090000CB1A921C03E013F8015B01F8015B521E45
:10091000F9D5A142D8D3002070BD000070B50446BF
:1009200000688168C943C90717D1816821F00101B6
:10093000816001F049F905460AE000BF01F044F981
:10094000401B022804D920688068C043C00706D035
:1009500020688068C043C007F0D0002070BDA06A46
:1009600040F01000A062E06A40F00100E062012067
:1009700070BD10B50146406A826A12F0500F05D072
:10098000006A026BBDE8104008461047816A41F4D6
:100990000071816201688968C1F3424107290CD165
:1009A000017B51B9816A21F480718162816AC90435
:1009B00003D4816A41F00101816200F005FD10BDA0
:1009C00010B5406A816A41F040018162C16A41F01C
:1009D0000401C16200F0FAFC10BD10B5406A00F0DD
:1009E000F4FC10BDF8B50026044600960068816846
:1009F000C943C9072DD0816841F0010181601648C3
:100A000016490068B0FBF1F000E0401E009000289D
:100A1000FBD101F0D9F8054616E000BF01F0D4F88B
:100A2000401B022810D920688068C043C0070BD043
:100A3000A06A40F01000A062E06A40F00100E062AD
:100A400084F824600120F8BD20688068C043C00796
:100A5000E4D10020F8BD0000FC00002040420F005F
:100A60002DE9F047DFF8C8900126484689F80E6066
:100A700002F048FE2F493A20A1F114040870487092
:100A80008870C8700025E561207F03F0E7FC2948E5
:100A900003F02CFA642001F063FDE069401CE06182
:100AA0000828F1DB0820E061207F401EC0B203F07F
:100AB000D5FC204803F01AFA642001F051FDE069EA
:100AC000401EE0610028EFDCA8461A4D00271035D3
:100AD0007F1CC4F81C80E0692E541648103001F0C9
:100AE0004FFD322001F03CFDE169404605F80180F0
:100AF000491CE1610829EEDB07218046E1610D48D0
:100B00006E54103001F03CFD322001F029FDE16906
:100B100005F80180491EE1610029F0DC032FD7D1DF
:100B200089F80E80BDE8F047014802F0EBBD0000F7
:100B30006401002014000020FEE700002DE9F05FB2
:100B4000824600780F4600287AD13F4C4FF00108CA
:100B5000002584F803803D707D70BD70FD703D718F
:100B60007D71BD71FD71DFF8E4B0394E4FF4FA6963
:100B7000606815E0A570A07801F0B6FF59463548C9
:100B800001F028FC0028A07827D046F82050A07853
:100B9000401CC0B2A0700828EDD36068401C6060A3
:100BA0004845E7D3656084F800802570A570A0787B
:100BB00001F09AFFA17856F8210028B340F6B83228
:100BC00090422BD94EF6602290420CD902207854E4
:100BD00001F0EEFC8AF8008026E056F82010491C4F
:100BE00046F82010D3E707F801805946194801F06C
:100BF000F1FB50B1A07846F82050E07820B18AF897
:100C0000008001F0A3FFE57011E084F80080A07877
:100C100056F82010491C46F8201008E059460D48A7
:100C200001F0D8FB0028F0D0A07846F82050A0783A
:100C3000401CC0B2A0700828B9D320780028B4D1D5
:100C40000020BDE8F09F00004001002008000804DB
:100C500018040020000801402DE9FC5F0020C04975
:100C60000190A1F12400FFF769FFBD4800212C3855
:100C7000C161BB49BA4D01202C3D0090E8698A460C
:100C80000A5C002A7DD001F061FF05F114000C21FF
:100C900001700A21417013218170C17003F026F99F
:100CA0004FF47A7001F05CFC0020AE4901220B1871
:100CB000401CDA710728F8DB084602F023FD4FF4E8
:100CC000FA6001F04DFCDFF89C82002608F19208E2
:100CD00008F11204A946B346A24907229231A1F1B4
:100CE000820000F049FC5D46C9F81CB038F81500D8
:100CF000FFF739FC04EBC507D7E90023FFF77AFAC1
:100D00006D1CC7E90001072DF0DB761C4F46C9F8C2
:100D10001C50022EE0DB40F6B83001F021FC00262A
:100D2000B846904907229231A1F1820000F024FCDC
:100D30000025C8F81C508B48923030F81500FFF79A
:100D400012FC04EBC507D7E90023FFF753FA6D1C2B
:100D5000C7E90001072DEEDB761CC146C8F81C5020
:100D6000022EDEDB002504EBC506A346D6E9000112
:100D70004FF0FF32FFF7C6FBFFF73AFC7849183116
:100D800000E0CBE021F815000020C6E900006D1C52
:100D9000072DE8DB002472480838017861B14178FA
:100DA00051B1817841B1C17831B1017921B1417935
:100DB00011B1817900297CD10099002979D0684846
:100DC0000838005D002875D166490AF8040001263C
:100DD00055460E55084602F095FC6149601C1839CD
:100DE00040B203F00FF95E48183803F07FF84FF077
:100DF0000008AA465C49C8684A14824300F40050BF
:100E000042EA00400861322001F0AAFBB8F1140F59
:100E10000DD153484FF000080838015D09B1002199
:100E200000E0012101554E48083801F0A9FB1AF8ED
:100E300004005546012809D14949002008390646D1
:100E4000085548492855085501F080FE285DAA46F6
:100E500002284BD10026434907229231A1F182009A
:100E600000F08AFB0025C9F81C503E48923030F84B
:100E70001500FFF778FB0BEBC507D7E90023FFF759
:100E8000B9F96D1CC7E90001072DEEDB761CC9F826
:100E90001C50022EDFDB0BEBC4015D46D1E90001E3
:100EA0004FF0FF32FFF72EFBFFF7A2FB2C49183162
:100EB00001E038E029E001EB4401C8810021084647
:100EC000C9F81C1005EBC0030026C3E90066401CEE
:100ED0000728F7DB224AC9F81C00083A0120105500
:100EE00020480AF80410015501F062FB9AF8070047
:100EF00020B100208AF80700009006E008F1010008
:100F00001FFA80F8002E7FF475AF641C072CFFF6E3
:100F100042AF009800287FF43DAF04E0401CE86138
:100F20000828FFF6A7AE0E4800212C380D4A0172A2
:100F300008461154401C0E28FBDB094B002052468A
:100F4000083B19541154401C0828FADB054802F0EC
:100F5000D9FB0348083801F013FB0198BDE8FC9F5A
:100F60002C0000206401002000100140F0B52D4B42
:100F7000187A002855D0002018722B4A014603F138
:100F80002C07012403F12405D8617E5C96B1012E63
:100F900008D0561896F807C0BCF1000F08D0F071C1
:100FA000685407E0565C0EB1505403E0545401E01D
:100FB000F4716C54491C0729E7DBD961F97939B31D
:100FC00001290BD0997AD1B198720146D8611418D1
:100FD000E1712954401C0728F9DB18E0597A39B12E
:100FE00058720146D8611154401C0728FBDB0EE003
:100FF0005C72D8611454401C0728FBDB07E09C722C
:10100000D8611118CC712C54401C0728F9DBD86129
:10101000054802F077FBBDE8F0400248243001F0BB
:10102000AFBAF0BD000000206401002000200B4A90
:101030000146535C13B10120002103E0491C07293C
:10104000F7DB7047535C23B15318DB790BB10220F7
:101050007047491C0729F5DB704700006401002038
:10106000014800F035BB0000B002002030B590F818
:1010700040500124AC40C56B6C60046863604368F9
:10108000102B036803D099600068C26030BD9A607D
:101090000068C16030BD00000548016841F0807102
:1010A00001600448016841F00101016070470000DF
:1010B000FCED00E0001000E0704700000A4910B5A8
:1010C000C8684A14824300F4005042EA00400861B4
:1010D00006490748FFF732FD064980200A68904319
:1010E00001D18020086010BD001001402C000020BC
:1010F000080000201404014072B6FEE706490020F3
:10110000C8610648016941F004010161016941F0CB
:101110004001016170470000F803002000200240F8
:10112000064A0021D16106490A6942F002020A61B9
:101130004861086940F0400008617047F8030020EA
:101140000020024014480022C168CB06134904D590
:10115000CA6942F00202CA611022C3685B0705D562
:10116000CB6943F00103CB6142F00402C369DB07A2
:1011700007D0CB6943F00403CB61C16921F00101C1
:10118000C161A2F58071013901D0C2607047C169A7
:1011900021F00101C161704700200240F8030020E6
:1011A00070B5054600F010FD0646114C09E0681CBC
:1011B00007D025B100F008FD801BA84201D903200B
:1011C00070BDE068C007F2D1E068800601D520203C
:1011D000E060E068C00605D4E069C00702D1E068BD
:1011E000400703D5FFF7AEFF012070BD002070BDA2
:1011F00000200240F8B500250446009590F8240030
:10120000012808D0012084F824002046FFF786FB3F
:10121000060002D053E00220F8BDA06A20F48850F6
:1012200040F00200A062022000F06CFD264909682F
:10123000B1FBF0F0400000E0401E00900028FBD120
:101240002046FFF7CFFB2068816841F008018160EC
:1012500000F0BAFC074608E000F0B6FCC01B0A2804
:1012600003D920688068000715D4206880680007CB
:10127000F2D42068816841F00401816000F0A4FC90
:10128000074612E000F0A0FCC01B0A280DD9206818
:101290008068400709D5A06A20F0020040F01000E5
:1012A000A06284F824500120F8BD206880684007BF
:1012B000E8D4A06A20F0020040F00100A06284F8A7
:1012C00024503046F8BD0000FC000020F8B5002492
:1012D000009490F824202546012A12D0012280F89B
:1012E00024204A681F23072A0DD20668776B521EF6
:1012F00002EB820293409F430B6893401F43776346
:1013000019E00220F8BD06680D2A0AD2376BD21FF9
:1013100002EB820293409F430B6893401F43376365
:1013200009E0F76A0D3A02EB820293409F430B6893
:1013300093401F43F7620A68072306680A2A0AD304
:10134000F7680A3A02EB420293409F438B6893404E
:101350001F43F76008E0376902EB420293409F4366
:101360008B6893401F4337610A68102A01D0112A05
:1013700020D1124B02689A4217D193681B0219D4EC
:10138000936843F4000393600968102912D10C4953
:101390000C4A0968B1FBF2F101EB8101490000E060
:1013A000491E00910029FBD104E0816A41F020012F
:1013B0008162012480F824502046F8BD00240140B9
:1013C000FC00002040420F0070477047704700004B
:1013D0002DE9F0414FF0000704003D467ED0A06AA1
:1013E000002628B9E66284F82460204600F07EF8E2
:1013F0002046FFF793FAA16AC90600D420B1A06A7B
:1014000040F01000A06269E0A16A21F4885141F027
:101410000201A1626268E169237B0A4347EA430152
:101420000A43A1684FF48077B94209D0012907D057
:101430005FF0000194F814C0BCF1010F02D00AE083
:101440003946F7E7F3B1A36A43F02003A362E36AE6
:1014500043F00103E3622368D3F804C02CF4694C21
:101460004CEA010CC3F804C021688B68DFF870C037
:1014700003EA0C0313438B60A168B9420BD0012926
:1014800009D00CE0DFF85CC0A3690CEB43330B43DD
:1014900043F40061DFE7218A0D05A5F58015216879
:1014A000CB6A23F470032B43CB62216889680E4B0F
:1014B0001940914208D1E662A16A21F0020141F08F
:1014C0000101A162BDE8F081A06A20F0020040F0B5
:1014D0001000A062E06A40F00100E0620120F1E744
:1014E000FDF7E1FF00E0FFFFFE0E1FFF70B586B0C5
:1014F0000025064600950195029503950068194957
:1015000088422DD11849886940F400708861886943
:1015100000F400700490886940F0040088618869D4
:10152000694600F0040004907F20009003200190A1
:101530000E4800F04FFA0F4C0D48C4E9000580201A
:10154000C4E90250400020618000C4E9050520463E
:10155000E56100F067F908B1FFF7CEFD346266621D
:1015600006B070BD00240140001002400008014098
:1015700008000240B00200202DE9F04789460446E9
:101580003B4900683B4F0E1D9046884201D0B8424F
:1015900007D1306810F4702F03D001252846BDE82C
:1015A000F08794F8240001280CD0012084F824004E
:1015B0002046FFF717FA05004FF0000004D084F82A
:1015C0002400EBE70220EAE7A16A40F601629143BA
:1015D00041F48071A1622168B94218D1326812F4D5
:1015E000702F14D0A16A41F48011A16231684905BD
:1015F00005D5A16A21F4005141F48051A162A16A8C
:10160000C9040AD5E16A21F00601E16206E0A26A96
:1016100022F48012A2624968E9E7E06284F82400BB
:10162000216A15488862216A1448C862216A1448F0
:10163000086321686FF0020008602068816841F447
:1016400080718160216843464A464C31206A00F02F
:1016500017F920688168C1F342410729816803D0E6
:1016600041F48011816099E741F4A001FAE700009C
:10167000002401400028014073090008DB0900082C
:10168000C109000810B5040002D0607910B106E06D
:10169000012010BD00202071204600F005F8012037
:1016A0006071002010BD000008B50068064988423E
:1016B00008D10648416941F040014161406900F0AC
:1016C0004000009008BD00000030024000100240C1
:1016D0002DE9F05FC16B0C6801680B68D0F840C061
:1016E000042202FA0CF2494DDFF824A1494E4A4F78
:1016F000DFF828B1DFF828E122422CD05A072AD59A
:101700000A68920603D40A6822F004020A6001689B
:10171000A94201D1042219E0514501D1402215E02E
:10172000B14202D14FF4806210E0B94202D14FF4CD
:1017300080420BE0594502D14FF4802206E071450A
:1017400002D14FF4800201E04FF080622F49083946
:101750004A60C16A3BE04FF0020808FA0CF818EA48
:10176000040F4FF000094FF0010235D05FEA837893
:1017700032D50B689B0605D40B6823F00A030B6077
:1017800080F821200168A94201D1022219E05145C7
:1017900001D1202215E0B14202D14FF4007210E0D5
:1017A000B94202D14FF400520BE0594502D14FF437
:1017B000003206E0714502D14FF4001201E04FF013
:1017C0000072124908394A6080F82090816A002925
:1017D0001AD0BDE8F05F0847082505FA0CF5254248
:1017E00012D01B0710D50B6823F00E030B6090F886
:1017F0004010C36B02FA01F15960826380F8212026
:1018000080F82090016BE2E7BDE8F09F08000240FD
:101810001C000240300002404400024058000240D8
:101820006C00024030B528B308C81349142219448B
:10183000B1FBF2F18900C163104981630221417754
:101840001A6843F6F0718A43D0E900142143D0E9C5
:1018500002452C432143046921434469214384699F
:10186000214311431960002141630122427701772E
:10187000084630BD012030BDF8FFFDBF000002402A
:1018800070B5044690F82000002501280CD00120F6
:1018900084F8200094F821600020012E06D084F8FE
:1018A00020000225284670BD022070BD022684F863
:1018B0002160A0632068066826F0010606602046C5
:1018C000FFF7D4FBE06A00282068016802D041F0ED
:1018D0000E0106E021F0040101602068016841F07A
:1018E0000A0101602068016841F001010160D9E747
:1018F0002DE9F047054626480F460126017E0129BD
:101900000FD00121814601762868DFF888804CF2EB
:101910005034022808D0A2462046FFF741FCA8B167
:1019200031E00220BDE8F0872046FFF739FC08BB14
:101930000120FFF7E3FB2046FFF732FCD8F8101038
:10194000064621F00401C8F810101CE04FF0FF30EB
:101950003860AC6811E02046FFF7E2FB5046FFF725
:101960001FFCD8F81010060021F00201C8F8101072
:1019700001D03C6007E004F58064D5E9020100EB8A
:101980008120A042E7D8002189F818103046C9E725
:10199000F8030020002002400348016941F0800163
:1019A000016100207047000000200240064900202D
:1019B0000A69120607D5054A4A60054A4A6009695C
:1019C000090600D501207047002002402301674529
:1019D000AB89EFCD2DE9F84FDFF8B891002409F17C
:1019E000040A0AF1040B23460F270BF1040EC9E089
:1019F0000125A5402A40AA427DD1674ED1F804C0F6
:101A0000ACEB0608B44532D014DCBCF1030F3AD07D
:101A100009DCBCF1000F2AD0BCF1010F1CD0BCF1D5
:101A2000020F31D11DE0BCF1110F17D0BCF1120F24
:101A30002AD119E0B8F5881F19D006DCB8F5803F27
:101A400015D0B8F5801F1FD111E0B8F5001F0ED0DA
:101A5000B8F5041F18D10AE0CB6815E0CB681B1D50
:101A600012E0CB6808330FE0CB680C330CE08B68D6
:101A70002BB1012B4FF0080303D0456104E0042390
:101A800002E0056100E00023FF2A01D8064601E0DC
:101A900000F104064FEA840501D9A5F12005D6F826
:101AA000008007FA05FC28EA0C0803FA05F548EA65
:101AB0000508C6F800804D68ED0062D5374DAE6967
:101AC00046F00106AE61AD6924F0030605F001059C
:101AD0000095334D06EB050CDCF80850A607360FD1
:101AE00007FA06F825EA0805DFF8B880404503D173
:101AF0004FF0000817E044E0DFF8AC80404502D129
:101B00004FF001080FE0DFF8A480404502D14FF00C
:101B1000020808E0DFF89880404502D14FF0030842
:101B200001E04FF0040808FA06F848EA0508CCF886
:101B300008804D68D9F80060ED034D4601D5164385
:101B400000E096432E604D68DAF80060AD0355461C
:101B500001D5164300E096432E604D68DBF8006027
:101B6000ED025D4601D5164300E096432E604D68B8
:101B7000DEF80060AD02754601D5164300E09643DD
:101B80002E60641C0D682A46E5407FF431AFBDE845
:101B9000F88F000000040140000011100010024006
:101BA0000000014000080140000C0140001001400D
:101BB000001401408068084000D0012070470AB13D
:101BC000016170470904FBE7014880687047000025
:101BD000F00000200248816802781144816070475B
:101BE000F0000020074810B5016841F010010160C5
:101BF000032000F075F8002000F006F800F024F84B
:101C0000002010BD0020024070B50D4D04464FF479
:101C10007A712878B1FBF0F00A490968B1FBF0F05D
:101C200000F0E4F848B9102C07D200222146501EDB
:101C300000F036F800206C6070BD012070BD00001F
:101C4000F0000020FC0000200C4808B5816941F03C
:101C500001018161816901F001010091C16941F0D7
:101C60008051C161C06900F0805000900448416813
:101C700021F0E06141F00071416008BD00100240B8
:101C800000000140002809DB00F01F020121914003
:101C90004009800000F1E020C0F80011704700000A
:101CA000F0B40E4B1B680C46C3F30223C3F10705C7
:101CB000042D00D90425191D072901D2002300E0B5
:101CC000DB1E012606FA05F1491E214099409E407F
:101CD000761E16403143F0BC01F0AAB80CED00E0CE
:101CE000064900F0070208684FF6FF03184040EA73
:101CF0000220034A10430860704700000CED00E02A
:101D00000000FA0510B529A401461DCC86B08DE867
:101D10001D002AA02A4C006804900020012923D02D
:101D200002293AD010291DD161682268D20119D543
:101D3000C1F38342C9031DF8020009D5616804AAF2
:101D4000C1F34041515C1F4AB2FBF1F1484301E04D
:101D50001D4948436168490204D440005FF0030113
:101D6000B0FBF1F006B010BD226AC2F301210129D7
:101D700003D1920701D5C803F4E7022905D1626AAD
:101D8000920702D549F64040ECE70329EAD12168E1
:101D90008903E7D54FF22440E4E700F017F86168C3
:101DA000C1F38131491C4900DAE700000203040550
:101DB000060708090A0B0C0D0E0F10100102000097
:101DC0000010024000127A0000093D000448054955
:101DD00000684968044AC1F3C221515CC840704799
:101DE000FC00002000100240EC45000810B5401E29
:101DF000B0F1807F01D3012010BD4FF0E02460617D
:101E00000F21601701F014F80020A0610720206165
:101E1000002010BD7047704770B590F83C20012A33
:101E200026D0012480F83C40022280F83D2003683F
:101E30005A689D6822F070060A6832435A600D4B5A
:101E400002689A4208D0B2F1804F05D00A4B9A42FC
:101E500002D00A4B9A4204D1496825F08003194305
:101E6000916080F83D40002180F83C10084670BD2C
:101E7000022070BD002C014000040040000800401A
:101E800010B5040003D094F83D0010B107E0012024
:101E900010BD002084F83C00204600F01FF802200E
:101EA00084F83D00211D206800F0FAFE012084F82E
:101EB000460084F83E0084F83F0084F8400084F82F
:101EC000410084F8420084F8430084F8440084F818
:101ED000450084F83D00002010BD000008B50068F2
:101EE000B0F1804F12D10A48C16941F00101C161CE
:101EF000C069002200F00100009011461C20FFF78D
:101F0000CFFEBDE808401C20FFF7BCBE08BD0000A6
:101F10000010024090F83D10012901D001207047C7
:101F2000022180F83D100168CA6842F00102CA60CF
:101F300000680B49884208D0B0F1804F05D00949AC
:101F4000884202D00849884204D1816801F0070123
:101F5000062903D0016841F00101016000207047AB
:101F6000002C014000040040000800400168CA68DD
:101F700022F00102CA6001680A6A41F211131A4292
:101F800007D10A6A9B101A4203D10A6822F00102A3
:101F90000A60012180F83D100020704770B50446AA
:101FA00090F83C00012817D0012584F83C5002200D
:101FB00084F83D002068826822F0770222F47F4294
:101FC00082600868502830D00DDC20284DD005DC18
:101FD00098B310283BD148E0022070BD302844D08F
:101FE000402834D139E0602828D0702806D0B0F5D8
:101FF000805F2CD0B0F5005F29D10AE0CB68D1E931
:102000000121206800F082FE2068816841F077019C
:1020100009E0CB68D1E90121206800F077FE206853
:10202000816841F48041816011E0CA684968206894
:1020300000F07EFE5021206807E016E0CA6849687B
:10204000206800F086FE6021206800F069FE84F8B8
:102050003D50002084F83C0070BDCA684968206883
:1020600000F066FE40212068EFE722680146104636
:10207000EBE7704770B50446006801694FF0000552
:10208000C943890715D4C168C943890711D4E91E1A
:10209000016101202077206880698007204602D0F6
:1020A000FFF7E7FF04E000F098F8204600F096F80C
:1020B000257720680169C943490717D4C168C94316
:1020C000490713D46FF004010161022020772068D2
:1020D000806910F4407F204602D0FFF7CAFF04E079
:1020E00000F07BF8204600F079F825772068016938
:1020F000C943090716D4C168C943090712D46FF050
:1021000008010161042020772068C069800720460B
:1021100002D0FFF7AEFF04E000F05FF8204600F0C9
:102120005DF8257720680169C943C90617D4C168DD
:10213000C943C90613D46FF010010161082020774C
:102140002068C06910F4407F204602D0FFF791FF5D
:1021500004E000F042F8204600F040F825772068BF
:102160000169C943C90708D1C168C943C90704D176
:10217000891E0161204600F033F820680169C943D7
:10218000090609D4C168C943090605D46FF0800166
:1021900001612046FFF73EFE20680169C9434906F8
:1021A00009D4C168C943490605D46FF040010161F3
:1021B000204600F023F820680169C94389060BD442
:1021C000C168C943890607D46FF020010161204628
:1021D000BDE87040FFF71FBE70BD7047704700003C
:1021E000044910B5884204D1FFF7C0FE024902201D
:1021F000087010BDA4010020000000207047FEE719
:1022000010B50446FEF748FF2046BDE8104002F036
:1022100005B90000044908B5CA690243CA61C96921
:102220000140009108BD000000100240044908B5BB
:102230008A6902438A6189690140009108BD0000F2
:102240000010024030B5264A002405790168131FAA
:1022500085B371B345798DB1012D17D0022D18D0FA
:10226000012483792BB31E4908310A1F012B18D092
:10227000022B20D0032B22D0012428E015688D43A7
:10228000156001681A680A431A60EAE71D688D4301
:1022900001E01D680D431D60016813680B43136066
:1022A000DFE703680D689D430D6000681168014316
:1022B00011600CE00DE0036815689D4302E00368BF
:1022C00015681D43156000680A6802430A602046CD
:1022D00030BD1D688D431D60006811688143E7E7CC
:1022E00004040140F0B50A68C2F30F2595FAA5F27F
:1022F000B2FA82F369E001229A402A4264D0082BA4
:1023000003D240F201129A4006E0A3F108024FF016
:102310000114944044F080624C68082C0BD10C6985
:10232000C668170A97FAA7F7B7FA87F726EA1226B8
:10233000BC402643C66092FAA2F700EB1264B7FADB
:1023400087F74FEA870C0F27266807FA0CF7BE437A
:1023500092FAA2F7D1F804E0B7FA87F7BF000EFAB5
:1023600007FE46EA0E0626604F68012F01D0092FAE
:102370002AD192FAA2F7B7FA87F74FEA870C032718
:1023800007FA0CF7BE4392FAA2F7B7FA87F7D1F82B
:1023900008E0BF000EFA07FE92FAA2FC46EA0E061B
:1023A000BCFA8CFC4FEA8C0E4FF0040C26600CFA41
:1023B0000EFC92FAA2F2B2FA82F2CF68920026EAFA
:1023C0000C0697403E4326605B1C35FA03F292D11F
:1023D0000020F0BD8068090A81430804000C01D088
:1023E000002070470120704700B5034600F04AFB0B
:1023F000186000F01DFB586000F028FB98605868DA
:1024000000F032FBD86000BD014908607047000051
:10241000FC000020F0B50268154B164C164D4FF02D
:102420008046984205D0B04203D0A04201D0A842D5
:1024300003D14F6822F070023A43984205D0B0426F
:1024400003D0A04201D0A84203D1CC6822F440724C
:10245000224302608A68C2620A888262984201D17D
:1024600009690163416941F0010141610020F0BD4A
:10247000002C014000040040000800402DE9FF410D
:102480000446C0680D460126C0F34030F0BBE96841
:102490006868E2680843296941F20C639A43114372
:1024A0000843E060A868216921F44051014321619B
:1024B0006869616921F44071014361616846FFF711
:1024C00093FF2448844201D1039806E022488442C5
:1024D00002D02248844238D10298B8B12A68AAB101
:1024E00000EBC00101EB00119200B1FBF2F364209C
:1024F000B3FBF0F3B1FBF2F56FF018077B43002656
:1025000005EB8305322303EB051500E01DE0B1FB6D
:10251000F2F7B5FBF0F5B7FBF0F705F0F00505EBCA
:102520000715B1FBF2F7B1FBF2F1B1FBF0F16FF07F
:102530001802514307EB810103EB0111B1FBF0F0ED
:1025400000F00F00284480B2A06004B03046BDE81F
:10255000F081000000380140004400400048004085
:1025600008B54FF0E0210A690092421C00D0401CDF
:102570000A69D20300D5401E0028F9D108BD000029
:1025800070B50021084D4FF40054084B62006E56A0
:10259000865D0EB11C6100E05C611A615A61491CE4
:1025A000C9B20829F3D370BD34000020000C0140EB
:1025B00010B50C4801210C4C0173C1790B4A4FF442
:1025C000807339B12361136843F001031360491E1E
:1025D000C17110BD6361116821F001011160042116
:1025E000F6E700000000002000080140000800405D
:1025F0003EB500242F48009401942D4902940160B7
:102600008915816004730475072505614FF4602105
:102610004460C161FEF7DCFE08B172B6FEE70094CB
:10262000012469462348CDE90145FEF74FFE08B174
:1026300072B6FEE70094022469461E480194FEF734
:1026400045FE08B172B6FEE70094032469461948B6
:102650000194FEF73BFE08B172B6FEE70094042435
:10266000694614480194FEF731FE08B172B6FEE7E0
:102670000094052469460F480194FEF727FE08B12F
:1026800072B6FEE70094062469460A480194FEF7F4
:102690001DFE08B172B6FEE769460648CDE9004561
:1026A000FEF714FE002801D072B6FEE73EBD000022
:1026B00000240140740100202DE9F04F87B000256F
:1026C0000595142168460695FDF745FD1020FFF796
:1026D000ADFD2020FFF7AAFD0420FFF7A7FD08208D
:1026E000FFF7A4FD3D483C4B4FF4005141613C4F86
:1026F00046F27B717961DFF8EC904FF40142C9F842
:1027000014204FF0800A48F2800BC9F810A0012471
:10271000022603958DE858006946FFF7E3FD32482D
:1027200003958DE8510069464846FFF7DBFD2F48C9
:1027300003958DE8510069463846FFF7D3FD2C48D4
:102740004FF00408CDE9000869464846FFF7CAFD86
:1027500044F240008DE8510169463846FFF7C2FD5A
:10276000244881684FF4704292FAA2F2B2FA82F2DF
:1027700021F4704104FA02F2114381608DF818408F
:102780008DF81950CDF814A08DF81A6005A8FFF740
:1027900059FD9BFAABF0B0FA80F082000F20396847
:1027A000904081439BFAABF0B0FA80F0820008FAC7
:1027B00002F00143396000F023FB0022012100F008
:1027C0001DF90146172000F023FB172000F00AFB3B
:1027D00007B0BDE8F08F0000200020040010014089
:1027E000000C014000080140818081047F3B6704A8
:1027F000080008040400014010B586B00024174802
:10280000009401940294039404944FF08041059441
:10281000016041F61F41C0E9011441F6B051C0E921
:1028200003148461FFF72CFB08B172B6FEE74FF486
:102830008050009069460948FFF7B0FB08B172B6B6
:10284000FEE7049404A905480594FFF7E5FA00287B
:1028500001D072B6FEE706B010BD0000A401002052
:1028600010B586B014216846FDF775FC0220FFF70D
:10287000D1FC00F0C5FA0022114600F0BFF8014675
:102880001D2000F0C5FA1D2000F0ACFA41F61F40F3
:10289000ADF80000002042F20F71CDE901010C4CAF
:1028A000039069462046FFF7B5FD206820F08000C0
:1028B0002060A06844F207018843A060606820F0AF
:1028C00070006060A06820F08000A06006B010BDBD
:1028D0000004004010B586B014216846FDF73BFCAB
:1028E0000420FFF797FC00F08BFA0022114600F05D
:1028F00085F801461E2000F08BFA1E2000F072FAC7
:1029000041F61F40ADF8000000204FF47A71CDE988
:1029100001010C4C039069462046FFF77BFD2068BF
:1029200020F080002060A06844F207018843A06086
:10293000606820F070006060A06820F08000A060F7
:1029400006B010BD0008004030B58DB01C216846AF
:10295000FDF701FC142107A8FDF7FDFB4FF48040B3
:10296000FFF764FC0420FFF761FC1F480790092073
:10297000089003200024CDE909041C4D07A928462E
:10298000FFF7B0FC1A4807900420089007A92846D2
:10299000FFF7A8FC00F034FA0022114600F02EF8F0
:1029A0000146252000F034FA252000F01BFA4FF4F0
:1029B000E130CDE900040C200294CDE903400594F8
:1029C00006940C4C69462046FFF758FD206920F418
:1029D00090402061606920F02A006061E06840F466
:1029E0000050E0600DB030BD02000204000801405C
:1029F0000400040400380140FEE7FEE730B500F0B3
:102A00000703C3F10704042C00D90424181D072868
:102A100001D2002300E0DB1E012505FA04F0401E70
:102A2000084098409D406D1E1540284330BD7047BA
:102A300004494968044A01F0F0010909515CC840A1
:102A40007047000000100240DC4500080449496856
:102A5000044A01F4E06102EB11210978C840704793
:102A600000100240EC45000804494968044A01F49A
:102A7000605102EBD1210978C84070470010024034
:102A8000EC4500080648406810F00C01054805D0E8
:102A9000042903D0082901D100F006B870470000CE
:102AA0000010024000127A000B48416811F4803295
:102AB0000A4909D0B2F5803F06D14168084AC1F3FE
:102AC0004041491CB2FBF1F14068022200F4701051
:102AD00002EB9040484370470010024000093D005F
:102AE00000127A007047000030B5202415491022EA
:102AF0000823082812D2DFE800F004060A0C0E1B97
:102B00001E214C6100E00C614A614B6106E04C61A2
:102B100015E04C6110E04C610BE00B610A480021AC
:102B20004170C9B2491CC9B241700A29F9D330BDFC
:102B30000C610A61F1E70C614A61EEE70C610A6120
:102B4000E3E70000000C01404001002010B50C48F4
:102B500000210C4C017381790B4A4FF4807339B119
:102B60002361136843F001031360491E817110BD96
:102B70006361116821F0010111600221F6E7000094
:102B8000000000200008014000080040FFF722B8C4
:102B9000264810B5016821F0070141F002010160EB
:102BA000016801F007010229FAD1214C206840F4A4
:102BB000803020602068C0F340400028FAD0606870
:102BC00020F47C1040F4E8106060206840F08070D1
:102BD00020602068C0F340600028FAD0606820F0D0
:102BE000F0006060606820F4E06040F48060606045
:102BF000606820F460506060606820F0030040F07E
:102C000002006060606800F00C000828FAD10948F2
:102C1000FFF7FAFB0020FEF7F7FF08B172B6FEE7F8
:102C2000606840F44040606010BD00000020024039
:102C30000010024000A24A04704700000148FFF75C
:102C400019BA0000A40100200848016911F0010F21
:102C500002D06FF00101016105490878401C08703D
:102C600004490878401C08707047000000040040C8
:102C700002000020030000200748016911F0010F45
:102C800002D06FF0010101610448007808B1FFF73C
:102C90008FBCFFF75BBF0000000800400C00002065
:102CA000F0B50268164B174C174D4FF0804798420D
:102CB00005D0B84203D0A04201D0A84203D122F0EF
:102CC00070064A683243984205D0B84203D0A04209
:102CD00001D0A84203D122F44074CA6822434C694F
:102CE00022F08002224302608A68C2620A6882621D
:102CF000984201D10969016301214161F0BD0000E1
:102D0000002C0140000400400008004010B5846819
:102D100042EA032224F47F440A432243826010BD26
:102D2000826822F070020A4342F007018160704716
:102D300010B5036A046A24F001040462846924F073
:102D4000F00444EA021423F00A020A438461026296
:102D500010BD10B5036A23F0100303628369046A8F
:102D600023F4704343EA023224F0A00343EA011142
:102D70008261016210BD00000A480168C1F3401180
:102D800000290DD040680949074A0B78D054084AF9
:102D90000B78D0540878401C087006490120087050
:102DA0007047000000380140EC0100200B000020BB
:102DB000F402002001000020FEE700000FB4084BE1
:102DC00010B504A902AA039800F014F9044602A958
:102DD000002000F092FC204610BC5DF814FB0000BF
:102DE000FB360008002809DB00F01F02012191409A
:102DF0004009800000F1E020C0F800117047000099
:102E000002480068C0F30220704700000CED00E0AB
:102E10000907090E002804DB00F1E02080F8001407
:102E2000704700F00F0000F1E02080F8141D70479B
:102E30000907090E002804DB00F1E02080F80014E7
:102E4000704700F00F0000F1E02080F8141D70477B
:102E500002E008C8121F08C1002AFAD17047704763
:102E6000002001E001C1121F002AFBD170470000C1
:102E70002DE9FF5F82B00021DDE90430020DDDF8AD
:102E800040B0034318D044F61050A2F2FF32424340
:102E90001514119801281FD0A5EB0B00401C5FEA08
:102EA000000A4FF000064E4FDFF83891B04650460A
:102EB00015D5CAF1000413E0119801244AA3012892
:102EC00001D16FEA0B010298119AC0E90031C0E903
:102ED000024206B0BDE8F09FCBF10000DFE70446F8
:102EE0000021404A491842EB0450CDE9001012E09D
:102EF000E00707D032463B4640464946FDF721FAF7
:102F00008046894632463B4610461946FDF719FA77
:102F100006460F466410002CEAD1DDE90401DDE924
:102F20000023BAF1000F06DAFDF70BFA42464B46D2
:102F3000FDF707FA05E0FDF776FA42464B46FDF746
:102F400072FA04460E460022284BFDF791FC03D886
:102F50004FF0FF30014607E00022254B2046314666
:102F6000FDF748F9FDF76CFC102409E0002C0ADBA2
:102F70000A220023FDF77EFB039B30321A55641EA4
:102F800050EA0102F2D1641C039AC4F11103144403
:102F9000119A012A03D0012208430DD10AE0084307
:102FA00004D000204FF0110B119072E7A3EB0B053A
:102FB0006D1E0DE05B4504DD4FF0000205F10105DB
:102FC00004E003DA4FF00002A5F10105002AECD07D
:102FD00002981199C0E90231C0E9004579E7000083
:102FE000000014400000F03F300000000000F043FB
:102FF0000000E03F2DE9FF4F95B09A46884606460F
:103000000025EEE1252877D100242746F94A012141
:10301000039400E0044316F8013F203B01FA03F05B
:103020001042F7D130782A2811D06FF02F03307872
:10303000A0F13002092A16D8039A44F0020402EBE8
:10304000820203EB42021044761C0390EFE758F82B
:10305000042B0392002A03DA504244F400540390F4
:1030600044F00204761C30782E2816D116F8010F91
:1030700044F004042A280DD06FF02F023078A0F11C
:103080003003092B09D807EB870302EB4303C7186A
:10309000761CF3E758F8047B761C30786C280FD048
:1030A00006DC4C2817D068280DD06A2814D104E01B
:1030B000742810D07A280FD10DE044F400140AE0EF
:1030C00044F4801401E044F440147278824202D146
:1030D00004F58014761C761C307866280BD013DC3F
:1030E000582877D009DC002875D04528F6D0462826
:1030F000F4D047281AD193E118E0632835D064282A
:1031000079D0652812D18BE1702873D008DC67284C
:10311000F1D069286FD06E280DD06F2806D1ACE0B1
:1031200073282CD0752874D0782853D0524617991C
:1031300090476D1C54E1C4F30250022809D00328C3
:103140000DD0D8F8001004280DD00D6008F1040847
:1031500046E1D8F80010EA17C1E90052F6E7D8F8BE
:1031600000100D80F2E70D70F0E718F8041B8DF8E1
:10317000001000208DF80100EB46012003E058F814
:1031800004BB4FF0FF3061074FF0000102D40DE0A7
:1031900009F101018946B9420FDA8145F8DB1BF8D4
:1031A00009100029F4D108E009F1010189468142A2
:1031B000FADB1BF809100029F6D103985346A0EB5F
:1031C000090721463846179A00F080FA284400EB98
:1031D000090507E044E008E10DE01BF8010B524649
:1031E00017999047B9F10109F7D25346214638465D
:1031F000179AF2E039E00A21C4F302524FF0000BB3
:103200000091022A06D058F8040BC117032A09D0EE
:103210000AE023E008F1070020F00702F2E80201CB
:10322000904605E000B2C117042A01D140B2C1178F
:10323000002906DA0A460021404261EB02012D22F4
:1032400002E0220504D52B228DF80420012203E0A0
:10325000E20701D02022F7E7914657E00A2100E07B
:1032600010214FF0000B00910BE010214FF0000BEC
:1032700044F004040827009103E008204FF0000BFD
:103280000090C4F30252022A05D058F8040B002122
:10329000032A08D008E008F1070020F00702F2E84E
:1032A0000201904603E080B2042A00D1C0B24FF080
:1032B000000922072AD53278702A07D0DDF800C02D
:1032C0008CF0100C5CEA0B0C05D00EE040228DF85F
:1032D0000420012208E050EA010306D030238DF8D3
:1032E00004308DF8052002229146009B83F00803EC
:1032F00053EA0B030AD150EA010201D1620705D556
:1033000030228DF804204FF001097F1E3278582AB0
:1033100004D039A20C920CAA02920BE03BA2F9E76E
:103320005B46009AFDF7A6F90C9B9B5C029A521E25
:103330000292137050EA0102F2D1029804A9081A0D
:1033400000F1200B600702D524F4803400E001274F
:103350005F4502DDA7EB0B0000E0002000EB0B0156
:10336000009003984944401A0390E00306D4534662
:103370002146179A039800F0A9F90544002706E0B2
:1033800001A85246C05D179990476D1C7F1C4F45A0
:10339000F6DBE0030CD553462146179A039800F05C
:1033A00095F9054404E030205246179990476D1C6A
:1033B0000099481E00900029F5DC08E00298029967
:1033C00052460078491C0291179990476D1CBBF139
:1033D0000001ABF1010BF1DC5BE100F065F90544A4
:1033E000761C307800287FF40DAE19B02846BDE871
:1033F000F08F000009280100303132333435363780
:103400003839616263646566000000003031323330
:1034100034353637383941424344454600000000D0
:10342000600700D4062708F1070020F00700F0E845
:103430000223804603F0004C5FEA0C0001D097A005
:1034400009E0200501D596A005E0E00701D095A090
:1034500001E0AFF24C001390307823F00043652870
:103460000CD006DC452809D046281DD047287FD13E
:103470003BE0662818D067287AD136E00021112F6A
:1034800001DB112000E0781CCDE9000104A90CA8A3
:10349000FFF7EEFCDDE90D010C9A4FF0000B07F190
:1034A0000109109200914EE04FF000400097CDE9E5
:1034B000011004A90CA8FFF7DBFCDDE90D020C9B51
:1034C0000F994FF0000B91461093009211B9791C9F
:1034D00000EB0109B7EB090003D4C0F1FF3B07F192
:1034E0000109A9EB0700019042E0012F00DA012752
:1034F0000021112F01DD112000E03846CDE9000147
:1035000004A90CA8FFF7B4FCDDE90D010C9A0091A9
:103510004FF0000BB946109221070FD4009A4A458C
:1035200003DA914601E0A9F10109B9F1010F05DDC6
:10353000109AA9F10101515C3029F4D0B84202DAA5
:1035400010F1040F03DA0121CDE9011010E0002889
:1035500003DC8344A9EB000102E0411C494500DD86
:103560008946A0EB0B00401C01904FF000400290F8
:10357000200705D40198484502DB4FF0FF30019049
:1035800000208DF84B0002980DF14B07B0F1004F71
:1035900025D002200C902B200D90029800280CDAE8
:1035A000404202902D200D9007E00A210298FDF77D
:1035B0004BF83031029007F8011D0C99481E0C9011
:1035C0000029F2DC02980028EFD1791E0D980870CE
:1035D000307800F0200040F0450007F8020D11A8F7
:1035E000C01BC01D02901398007800B1012000EBB1
:1035F0000901019801EBE071029801440398401A17
:10360000401E0390E00306D453462146179A0398C0
:1036100000F05CF805441398007818B152461799E9
:1036200090476D1CE00323D553462146179A039813
:1036300000F04CF805441BE0BBF1000F07DB0098DD
:10364000584504DD1098179910F80B0001E0179900
:1036500030205246904701980BF1010B401E05F1B6
:103660000105019004D12E205246179990476D1CF8
:10367000B9F10001A9F10109DEDC05E017F8010B41
:103680005246179990476D1C0299481E02900029D6
:10369000F4DC53462146179A03989EE62D0000005D
:1036A0002B000000200000002DE9F0410446002519
:1036B0001E461746880404D405E039462020B0474A
:1036C0006D1C641EF9D52846BDE8F0812DE9F04156
:1036D000044600251E469046C80301D5302700E069
:1036E0002027880404D505E041463846B0476D1CC4
:1036F000641EF9D52846BDE8F0810A68531C0B60AA
:1037000010707047F0B50A4902244C610022094E3E
:103710000D150123B756C75D0FB10D6100E04D6176
:103720004B610B61521CD2B2102AF3D30C61F0BD75
:10373000000C0140E00000202DE9F041A54841784F
:1037400000297DD0002545702E46A3A1A348FCF793
:103750000DFDA24C0127883C08B127700126A0A1CD
:103760009E48FCF703FD08B1677001269DA19B48A8
:10377000FCF7FCFC08B1A77001269BA19748FCF759
:10378000F5FC08B1E770012698A19448FCF7EEFC1F
:1037900008B12771012696A19048FCF7E7FC08B113
:1037A0006771012693A18D48FCF7E0FC08B1A77171
:1037B000012691A18948FCF7D9FC28B100202754A3
:1037C000401C0728FBDB01268CA18448FCF7CEFCBB
:1037D00008B1257001268AA18048FCF7C7FC08B112
:1037E0006570012687A17D48FCF7C0FC08B1A57073
:1037F000012685A17948FCF7B9FC08B1E5700126DE
:1038000082A17648FCF7B2FC08B12571012680A19F
:103810007248FCF7ABFC08B1657101267DA16F48C9
:10382000FCF7A4FC08B1A57101267BA16B48FCF74D
:103830009DFC38B100202554401C0728FBDB00E02C
:10384000C5E0012675A16548FCF790FCDFF884818E
:1038500008F1240818B1E77188F80070012670A1FA
:103860005E48FCF783FC18B1277288F801700126C6
:103870006CA15A48FCF77AFC18B1677288F802709C
:10388000012669A15548FCF771FC18B1A77288F8A8
:103890000370012665A15148FCF768FC18B1E77276
:1038A00088F80470012662A14C48FCF75FFC18B14F
:1038B000277388F8057001265EA14848FCF756FC7E
:1038C00018B1677388F8067001265BA14348FCF7BE
:1038D0004DFC48B10720414627540A18401C02F805
:1038E000077C0E28F8DB012654A13C48FCF73EFC7F
:1038F00018B1E57188F80050012651A13748FCF74E
:1039000035FC18B1257288F8015001264DA13348C5
:10391000FCF72CFC18B1657288F8025001264AA108
:103920002E48FCF723FC18B1A57288F80350012635
:1039300046A12A48FCF71AFC18B1E57288F8045031
:10394000012643A12548FCF711FC18B1257388F81E
:10395000055001263FA12148FCF708FC18B165730A
:1039600088F8065001263CA11C48FCF7FFFB48B133
:103970000720414625540A18401C02F8075C0E280F
:10398000F8DB012635A11548FCF7F0FB08B1A77359
:10399000012633A11148FCF7E9FB08B1A57301E04A
:1039A000002E14D00D488838FFF7ACFE09482430AB
:1039B000FEF7E6FD00F06CF808482AA19238FFF700
:1039C000FDF9BDE8F0410548923800F083BDBDE83F
:1039D000F08100000000002043314E00EC01002087
:1039E00043324E0043334E0043344E0043354E00C5
:1039F00043364E0043374E00434E000043314600ED
:103A000043324600433346004334460043354600C4
:103A100043364600433746004346000052314E00CD
:103A200052324E0052334E0052344E0052354E0048
:103A300052364E0052374E00524E00005231460070
:103A40005232460052334600523446005235460048
:103A500052364600523746005246000046414E005C
:103A6000464146006F6B000010B57F21002000F03A
:103A700017FA7F21012000F013FA7F21022000F0C5
:103A80000FFA7F21BDE81040032000F009BA0000C2
:103A9000FF220649064804E0C37ACA54C37A5B1E73
:103AA000C372C37A002BF7D10A707047EC01002073
:103AB0000000002008494978012908D000217F280A
:103AC00007D0054A921C105C084440B27047802120
:103AD000F5E748B2704700000001002030B50C49FE
:103AE000497801290FD000220021094C0D46A41C61
:103AF00043567F2B09D0E35C13444354491CC9B29D
:103B00000429F5D330BD8022EEE74554F6E70000E6
:103B10000001002070B5214CA07800250A2802D3AE
:103B2000A57000F013FA2078022815D1257000F056
:103B300045FCE081C11700EB11700011FCF7F9FCA6
:103B40002061FCF76EFD02460B4615A11748FFF7F2
:103B500035F9164800F0BEFCE07800281CD0E5706E
:103B6000607988B10D4965711431206900F052FA0D
:103B70000A482F21143081700C21C170BDE87040BB
:103B80000648143000F0B2B90120044960711431C4
:103B9000206900F03FFAF1E770BD0000000000204E
:103BA00054203D20252E3266200A0D0050010020B1
:103BB00070B52A4CA07800250A2802D3A57000F021
:103BC000C5F92078022815D1257000F0F7FBE081B7
:103BD000C11700EB11700011FCF7ABFC2061FCF782
:103BE00020FD02460B461EA12048FFF7E7F81F48BC
:103BF00000F070FCE07800282FD0E570206A0728DC
:103C000000DB2562194D206A1435295C00F10100A2
:103C1000F9B112492062143140B200F0F3F90F48B3
:103C2000143000F063F912A000F054FC0024285D69
:103C300038B1621C10A10D48FFF7C0F80B4800F026
:103C400049FC641C072CF2DBBDE870400BA000F0BF
:103C500041BC0628D9DD0020D7E770BD0000002058
:103C600054203D20252E3266200A0D0050010020F0
:103C70004368206F6E3A2000256420000A0D000082
:103C80002DE9F047714CA07800270A2802D3A770CD
:103C900000F05CF92078022815D1277000F08EFB27
:103CA000E081C11700EB11700011FCF742FC2061AC
:103CB000FCF7B7FC02460B4665A16848FFF77EF8A3
:103CC000664800F007FCE07800287DD03846E770B1
:103CD000624DE761B83505EBC0030021C3E900116F
:103CE000401C0728F7DBDFF87491002609F1A609CC
:103CF000BA46A046E06159490722A631A1F18200E7
:103D0000FDF73AFC5446C8F81CA000BF39F814006F
:103D1000FCF729FC05EBC407D7E90023FCF76AFA96
:103D2000641CC7E90001072CF0DB761CC8F81C40B6
:103D3000022EE0DB564634464FF0FF39C8F81CA08F
:103D400005EBC4074A46D7E90001FCF7DBFB641C1E
:103D5000C7E90001072CF3DBDFF80091344609F1D5
:103D6000F00909F1380AC8F81C6000BF09EBC4006B
:103D700005EBC407D0E90023D7E90001FCF7E1FA1D
:103D80000AEBC403D3E90023FCF734FA641CC7E947
:103D90000001072CEADBC8F81C40304F98F80510EA
:103DA00040461437A1B34671D8F82000274A05EBE6
:103DB000C001143251E9020100F0F6F828A000F029
:103DC00089FB0024385D00E03EE038B1621C26A18A
:103DD0002248FEF7F3FF214800F07CFB3819C07938
:103DE00050B105EBC40021A1D0E900231B48FEF728
:103DF000E5FF1A4800F06EFB641C072CE2DB1DA0F7
:103E000000F068FBBDE8F0471048143000F06EB8D1
:103E100001214171016A072905DB066203E0491CA3
:103E200001620629F9DC016A7A5C002AF7D07A1867
:103E3000D279002AF3D04A1C044950B21431C8F890
:103E4000202000F0DFF8DDE7BDE8F087000000206B
:103E500054203D20252E3266200A0D0050010020FE
:103E60004368206F6E3A00002025640028252E3319
:103E7000662900000A0D00000649074A0968B1FBDF
:103E8000F2F1414305480022426042688A42FCD375
:103E900070470000FC00002040420F00001000E0CE
:103EA00070B505460846FFF705FE044600F0DCFA4B
:103EB000442000F039FB00F0EDFA00F0D5FA45F0AF
:103EC000C00040B200F030FB204600F02DFB00F0B7
:103ED000E1FA00F0C9FA0448007840B200F024FB8F
:103EE000BDE8704000F0D6BA0001002038B50021CE
:103EF0006D46425C6A54491CC9B20429F9D328466C
:103F0000FFF7ECFD00F0B0FA402000F00DFB00F0F0
:103F1000C1FA00F0A9FA6FF03F0000F005FB0024A1
:103F2000285700F001FB641CE4B2042CF8D300F025
:103F3000B1FA00F099FA0448007840B200F0F4FABF
:103F400000F0A8FA38BD00000001002010B500F014
:103F50004DFACC2000F030FB442000F02DFB05484A
:103F6000016805480268D162C160BDE81040FDF7F4
:103F7000D1BF000048010020A4010020084808B576
:103F8000084A8260002101600222C2600091FDF7B0
:103F90000DFD69460248FDF7ABFCFDF7FDFC08BDD1
:103FA0003804002000F8010870B5144605460E4696
:103FB000FCF7FFFA323040B220703238FCF7C2FA18
:103FC0002A463346FCF7BAF900220D4BFCF7B9F943
:103FD000FCF7EFFA01B2642091FBF0F060706FF033
:103FE0001802504301EB800001B20A2091FBF0F06F
:103FF000A070404200EB800001EB4000E07070BD1B
:1040000000408F400C220A7020224A702E228A70B3
:10401000C870704710B50C461449FCF7B9F8FCF7A6
:10402000AFFA01B24FF47A7091FBF0F040B2207019
:104030006FF07C02504301EBC00001B2642091FBA1
:10404000F0F000F1320262706FF01802504301EBA1
:10405000800001B20A2091FBF0F0A070404200EB1A
:10406000800001EB4000E07010BD00000000C8427D
:1040700010B50A46094B0DE010F8014BFF2C06D095
:104080000A46984206D1FFF779FF054810BD521E37
:1040900092B2F6E7002AEFD1401A10BDFFFF0108E7
:1040A00000F801081F2805D03F2805D05F2805D05B
:1040B0000120704708207047042070470220704795
:1040C00008B5FDF78FFDFEF763FDFEF7F5FA8D48A5
:1040D000416941F0010141614069002200F00100A5
:1040E000009011460B20FDF7DBFD0B20FDF7CAFD0C
:1040F000FEF77EFAFEF7EEFB844983480860084627
:10410000FDF7C0FA08B172B6FEE7FEF7A9FBFEF7AD
:104110001BFCFEF771FBFCF7A3FCFCF7BDFF0720BF
:1041200000F09CF9FFF7A0FC7948FDF763F87949A6
:10413000802008617848016821F002010160C168AF
:1041400041F00101C160016841F001010160734863
:10415000016821F002010160C16841F00101C16004
:104160006F48C16841F02001C1601E216D48FFF712
:104170007FFFDFF898B1ABF13C0B5D46CBF8180040
:104180000BF1440000F004F9FCF766FD4FF0000A63
:104190005446C5F81CA05D48083000EB440130F8D7
:1041A0001490C989A1EB0900FCF7CCF9574A88465D
:1041B0002C3202EBC4020746D2E90E563A46434679
:1041C00028463146FCF72FF9514ACC3202EBC402A3
:1041D000C2E900014846FCF7C6F92A463346FCF717
:1041E000B0F881F000413A464346FCF71CF94E4ACC
:1041F00002EBC402641CC2E90001072CCBDB5D4664
:104200007F20CBF81C40FDF7FBFFDFF8048101267F
:104210005446DFF818B1B146A8F11008C5F820A03F
:10422000FFF78AFAFCF7A2FEFCF700FF287120B125
:10423000012805D0022808D105E0FFF76BFC04E057
:10424000FFF7B6FC01E0FFF71BFD2969594507DDC3
:1042500036B12F4888F80E9000261038FFF752FA32
:1042600033482969814207DA36B9294888F80E406F
:1042700001261038FFF746FA2E4829698142CFDD22
:1042800020464146EC610C54401C0E28FBDB1F49C4
:1042900088F80E9020461839EC610C54401C082810
:1042A000FBDBE86119481838FEF76AF9184810383E
:1042B000FFF728FAFEF74AFC14480A212838017053
:1042C0001321417081702B21C170FFF70FFE1AA0DE
:1042D00000F000F94FF47A7A1B4F28690FE000BF15
:1042E000FFF734FE5046FEF73BF900F067F8E8812F
:1042F000C11700EB11700011FCF71BF92861B842DF
:104300008EDDEDE700100240003002403C0000204E
:104310007401002000080140000400400008004033
:104320000038014000F801087802002000004842EF
:104330000000344200009642416C6C61726D212095
:1043400048696768205421000000824210B50F4C74
:10435000002240212046FDF732FC0A20FFF78CFDA9
:10436000012240212046FDF72AFC0A20FFF784FDA8
:1043700040212046FDF71EFC08B1012400E0002486
:104380003220FFF779FD204610BD0000000C0140EF
:104390000849094A096891420AD00022B1F11E0178
:1043A00031F8023B20F81230521C92B20F2AF7D398
:1043B000704700001800002000F8010870B500F0F8
:1043C00015F8CC2000F0F8F8BE2000F0F5F8002534
:1043D0004FEA0504FFF7BAFFA040641C2844E4B28A
:1043E00005B2102CF6D3284670BD000070B50A4CFB
:1043F000002240212046FDF7E2FB4FF4F0752846ED
:10440000FFF73AFD012240212046FDF7D8FB284660
:10441000BDE87040FFF730BD000C014010B5044608
:10442000FFF7E4FFCC2000F0C7F84E2000F0C4F8FE
:104430004B2000F0C1F8462000F0BEF8204600F006
:10444000BBF82046FFF72EFE41F6B051B1FBF0F06D
:104450000149086010BD0000480100200149883072
:10446000087070470001002070B5094C4FF480754A
:1044700025610620FFF700FD661526610620FFF77F
:10448000FBFC66610620FFF7F7FC656170BD00006C
:10449000000C014070B5094C4FF480756561062031
:1044A000FFF7EAFC661566610620FFF7E5FC25616B
:1044B0000620FFF7E1FC266170BD0000000C014002
:1044C000034948600868C0F380100028FAD070479C
:1044D0000038014000B50346002203E0521C92B2AE
:1044E000FFF7EEFF985C0028F8D100BD70B50D4DC8
:1044F0000446002240212846FDF761FB0CB10A204A
:1045000000E03C20FFF7B8FC012240212846FDF7DF
:1045100056FB0CB13C2000E00A20BDE87040FFF7DC
:10452000ABBC0000000C01402DE9F0470025204CF9
:1045300007462E464FF480784FF40079C4F8148073
:10454000F807484601D0206100E060610620FFF7CF
:1045500093FC7F100620FFF78FFCC4F81080082022
:10456000FFF78AFC761CF6B2082EE7D34746C4F85C
:1045700014800620FFF780FC4E46C4F810900620F9
:10458000FFF77AFC27610820FFF776FC094801E075
:1045900066610025A16820EA01010904090C04D123
:1045A0006D1CEDB2C82DF5D1F2E7BDE8F087000033
:1045B000000C01400002040070B505465FF00004E5
:1045C00025FA04F000F00100FFF790FF0520FFF747
:1045D00053FC641CE4B2082CF2D370BD0000000050
:1045E00000000000010203040607080900000000A3
:1045F0000102030414460008000000204C010000E2
:10460000C4080008904600084C010020FC06000089
:10461000602E00085201032C020414070201051643
:1046200006050403ABFF0F0201403A66010B2E0A98
:1046300040088110090A040B050C060D0E28080716
:1046400001080209030FF082103324F4102C3F06F6
:104650005B4F666D7D077F6F777F393F79713D7660
:104660001E38373F736D3E6E5F7C585E7B717410F1
:104670000E06545C6708781C6E2580484063A00BCA
:10468000BF86DBCFE6EDFD87FFEF23B01D00000006
:04000005080000ED02
:00000001FF
